{
  "_format": "hh-sol-artifact-1",
  "contractName": "DegenToken",
  "sourceName": "contracts/DegenToken.sol",
  "abi": [
    {
      "inputs": [
        {
          "internalType": "address",
          "name": "initialOwner",
          "type": "address"
        }
      ],
      "stateMutability": "nonpayable",
      "type": "constructor"
    },
    {
      "inputs": [
        {
          "internalType": "address",
          "name": "spender",
          "type": "address"
        },
        {
          "internalType": "uint256",
          "name": "allowance",
          "type": "uint256"
        },
        {
          "internalType": "uint256",
          "name": "needed",
          "type": "uint256"
        }
      ],
      "name": "ERC20InsufficientAllowance",
      "type": "error"
    },
    {
      "inputs": [
        {
          "internalType": "address",
          "name": "sender",
          "type": "address"
        },
        {
          "internalType": "uint256",
          "name": "balance",
          "type": "uint256"
        },
        {
          "internalType": "uint256",
          "name": "needed",
          "type": "uint256"
        }
      ],
      "name": "ERC20InsufficientBalance",
      "type": "error"
    },
    {
      "inputs": [
        {
          "internalType": "address",
          "name": "approver",
          "type": "address"
        }
      ],
      "name": "ERC20InvalidApprover",
      "type": "error"
    },
    {
      "inputs": [
        {
          "internalType": "address",
          "name": "receiver",
          "type": "address"
        }
      ],
      "name": "ERC20InvalidReceiver",
      "type": "error"
    },
    {
      "inputs": [
        {
          "internalType": "address",
          "name": "sender",
          "type": "address"
        }
      ],
      "name": "ERC20InvalidSender",
      "type": "error"
    },
    {
      "inputs": [
        {
          "internalType": "address",
          "name": "spender",
          "type": "address"
        }
      ],
      "name": "ERC20InvalidSpender",
      "type": "error"
    },
    {
      "inputs": [
        {
          "internalType": "address",
          "name": "owner",
          "type": "address"
        }
      ],
      "name": "OwnableInvalidOwner",
      "type": "error"
    },
    {
      "inputs": [
        {
          "internalType": "address",
          "name": "account",
          "type": "address"
        }
      ],
      "name": "OwnableUnauthorizedAccount",
      "type": "error"
    },
    {
      "anonymous": false,
      "inputs": [
        {
          "indexed": true,
          "internalType": "address",
          "name": "owner",
          "type": "address"
        },
        {
          "indexed": true,
          "internalType": "address",
          "name": "spender",
          "type": "address"
        },
        {
          "indexed": false,
          "internalType": "uint256",
          "name": "value",
          "type": "uint256"
        }
      ],
      "name": "Approval",
      "type": "event"
    },
    {
      "anonymous": false,
      "inputs": [
        {
          "indexed": true,
          "internalType": "address",
          "name": "previousOwner",
          "type": "address"
        },
        {
          "indexed": true,
          "internalType": "address",
          "name": "newOwner",
          "type": "address"
        }
      ],
      "name": "OwnershipTransferred",
      "type": "event"
    },
    {
      "anonymous": false,
      "inputs": [
        {
          "indexed": true,
          "internalType": "address",
          "name": "from",
          "type": "address"
        },
        {
          "indexed": true,
          "internalType": "address",
          "name": "to",
          "type": "address"
        },
        {
          "indexed": false,
          "internalType": "uint256",
          "name": "value",
          "type": "uint256"
        }
      ],
      "name": "Transfer",
      "type": "event"
    },
    {
      "inputs": [
        {
          "internalType": "address",
          "name": "owner",
          "type": "address"
        },
        {
          "internalType": "address",
          "name": "spender",
          "type": "address"
        }
      ],
      "name": "allowance",
      "outputs": [
        {
          "internalType": "uint256",
          "name": "",
          "type": "uint256"
        }
      ],
      "stateMutability": "view",
      "type": "function"
    },
    {
      "inputs": [
        {
          "internalType": "address",
          "name": "spender",
          "type": "address"
        },
        {
          "internalType": "uint256",
          "name": "value",
          "type": "uint256"
        }
      ],
      "name": "approve",
      "outputs": [
        {
          "internalType": "bool",
          "name": "",
          "type": "bool"
        }
      ],
      "stateMutability": "nonpayable",
      "type": "function"
    },
    {
      "inputs": [
        {
          "internalType": "address",
          "name": "account",
          "type": "address"
        }
      ],
      "name": "balanceOf",
      "outputs": [
        {
          "internalType": "uint256",
          "name": "",
          "type": "uint256"
        }
      ],
      "stateMutability": "view",
      "type": "function"
    },
    {
      "inputs": [
        {
          "internalType": "uint256",
          "name": "value",
          "type": "uint256"
        }
      ],
      "name": "burn",
      "outputs": [],
      "stateMutability": "nonpayable",
      "type": "function"
    },
    {
      "inputs": [
        {
          "internalType": "address",
          "name": "account",
          "type": "address"
        },
        {
          "internalType": "uint256",
          "name": "value",
          "type": "uint256"
        }
      ],
      "name": "burnFrom",
      "outputs": [],
      "stateMutability": "nonpayable",
      "type": "function"
    },
    {
      "inputs": [
        {
          "internalType": "uint256",
          "name": "_value",
          "type": "uint256"
        }
      ],
      "name": "burnTokens",
      "outputs": [],
      "stateMutability": "nonpayable",
      "type": "function"
    },
    {
      "inputs": [],
      "name": "decimals",
      "outputs": [
        {
          "internalType": "uint8",
          "name": "",
          "type": "uint8"
        }
      ],
      "stateMutability": "pure",
      "type": "function"
    },
    {
      "inputs": [],
      "name": "getBalance",
      "outputs": [
        {
          "internalType": "uint256",
          "name": "",
          "type": "uint256"
        }
      ],
      "stateMutability": "view",
      "type": "function"
    },
    {
      "inputs": [],
      "name": "getRedeemedItems",
      "outputs": [
        {
          "components": [
            {
              "internalType": "uint256",
              "name": "id",
              "type": "uint256"
            },
            {
              "internalType": "string",
              "name": "name",
              "type": "string"
            },
            {
              "internalType": "uint256",
              "name": "cost",
              "type": "uint256"
            }
          ],
          "internalType": "struct DegenToken.Item[]",
          "name": "",
          "type": "tuple[]"
        }
      ],
      "stateMutability": "view",
      "type": "function"
    },
    {
      "inputs": [
        {
          "internalType": "uint256",
          "name": "",
          "type": "uint256"
        }
      ],
      "name": "items",
      "outputs": [
        {
          "internalType": "uint256",
          "name": "id",
          "type": "uint256"
        },
        {
          "internalType": "string",
          "name": "name",
          "type": "string"
        },
        {
          "internalType": "uint256",
          "name": "cost",
          "type": "uint256"
        }
      ],
      "stateMutability": "view",
      "type": "function"
    },
    {
      "inputs": [
        {
          "internalType": "address",
          "name": "to",
          "type": "address"
        },
        {
          "internalType": "uint256",
          "name": "amount",
          "type": "uint256"
        }
      ],
      "name": "mint",
      "outputs": [],
      "stateMutability": "nonpayable",
      "type": "function"
    },
    {
      "inputs": [],
      "name": "name",
      "outputs": [
        {
          "internalType": "string",
          "name": "",
          "type": "string"
        }
      ],
      "stateMutability": "view",
      "type": "function"
    },
    {
      "inputs": [],
      "name": "owner",
      "outputs": [
        {
          "internalType": "address",
          "name": "",
          "type": "address"
        }
      ],
      "stateMutability": "view",
      "type": "function"
    },
    {
      "inputs": [
        {
          "internalType": "uint256",
          "name": "itemId",
          "type": "uint256"
        }
      ],
      "name": "redeemTokens",
      "outputs": [],
      "stateMutability": "nonpayable",
      "type": "function"
    },
    {
      "inputs": [],
      "name": "renounceOwnership",
      "outputs": [],
      "stateMutability": "nonpayable",
      "type": "function"
    },
    {
      "inputs": [],
      "name": "showStoreItems",
      "outputs": [
        {
          "internalType": "string",
          "name": "",
          "type": "string"
        }
      ],
      "stateMutability": "pure",
      "type": "function"
    },
    {
      "inputs": [],
      "name": "symbol",
      "outputs": [
        {
          "internalType": "string",
          "name": "",
          "type": "string"
        }
      ],
      "stateMutability": "view",
      "type": "function"
    },
    {
      "inputs": [],
      "name": "totalSupply",
      "outputs": [
        {
          "internalType": "uint256",
          "name": "",
          "type": "uint256"
        }
      ],
      "stateMutability": "view",
      "type": "function"
    },
    {
      "inputs": [
        {
          "internalType": "address",
          "name": "to",
          "type": "address"
        },
        {
          "internalType": "uint256",
          "name": "value",
          "type": "uint256"
        }
      ],
      "name": "transfer",
      "outputs": [
        {
          "internalType": "bool",
          "name": "",
          "type": "bool"
        }
      ],
      "stateMutability": "nonpayable",
      "type": "function"
    },
    {
      "inputs": [
        {
          "internalType": "address",
          "name": "from",
          "type": "address"
        },
        {
          "internalType": "address",
          "name": "to",
          "type": "address"
        },
        {
          "internalType": "uint256",
          "name": "value",
          "type": "uint256"
        }
      ],
      "name": "transferFrom",
      "outputs": [
        {
          "internalType": "bool",
          "name": "",
          "type": "bool"
        }
      ],
      "stateMutability": "nonpayable",
      "type": "function"
    },
    {
      "inputs": [
        {
          "internalType": "address",
          "name": "newOwner",
          "type": "address"
        }
      ],
      "name": "transferOwnership",
      "outputs": [],
      "stateMutability": "nonpayable",
      "type": "function"
    },
    {
      "inputs": [
        {
          "internalType": "address",
          "name": "_receiver",
          "type": "address"
        },
        {
          "internalType": "uint256",
          "name": "_value",
          "type": "uint256"
        }
      ],
      "name": "transferTokens",
      "outputs": [],
      "stateMutability": "nonpayable",
      "type": "function"
    }
  ],
  "bytecode": "0x60806040523480156200001157600080fd5b506040516200296938038062002969833981810160405281019062000037919062000489565b806040518060400160405280600a81526020017f446567656e546f6b656e000000000000000000000000000000000000000000008152506040518060400160405280600381526020017f44474e00000000000000000000000000000000000000000000000000000000008152508160039081620000b5919062000735565b508060049081620000c7919062000735565b505050600073ffffffffffffffffffffffffffffffffffffffff168173ffffffffffffffffffffffffffffffffffffffff16036200013f5760006040517f1e4fbdf70000000000000000000000000000000000000000000000000000000081526004016200013691906200082d565b60405180910390fd5b62000150816200035960201b60201c565b5060066040518060600160405280600181526020016040518060400160405280600981526020017f446567656e204e46540000000000000000000000000000000000000000000000815250815260200160968152509080600181540180825580915050600190039060005260206000209060030201600090919091909150600082015181600001556020820151816001019081620001ef919062000735565b5060408201518160020155505060066040518060600160405280600281526020016040518060400160405280600581526020017f53686972740000000000000000000000000000000000000000000000000000008152508152602001606481525090806001815401808255809150506001900390600052602060002090600302016000909190919091506000820151816000015560208201518160010190816200029a919062000735565b5060408201518160020155505060066040518060600160405280600381526020016040518060400160405280600381526020017f4d756700000000000000000000000000000000000000000000000000000000008152508152602001604b815250908060018154018082558091505060019003906000526020600020906003020160009091909190915060008201518160000155602082015181600101908162000345919062000735565b50604082015181600201555050506200084a565b6000600560009054906101000a900473ffffffffffffffffffffffffffffffffffffffff16905081600560006101000a81548173ffffffffffffffffffffffffffffffffffffffff021916908373ffffffffffffffffffffffffffffffffffffffff1602179055508173ffffffffffffffffffffffffffffffffffffffff168173ffffffffffffffffffffffffffffffffffffffff167f8be0079c531659141344cd1fd0a4f28419497f9722a3daafe3b4186f6b6457e060405160405180910390a35050565b600080fd5b600073ffffffffffffffffffffffffffffffffffffffff82169050919050565b6000620004518262000424565b9050919050565b620004638162000444565b81146200046f57600080fd5b50565b600081519050620004838162000458565b92915050565b600060208284031215620004a257620004a16200041f565b5b6000620004b28482850162000472565b91505092915050565b600081519050919050565b7f4e487b7100000000000000000000000000000000000000000000000000000000600052604160045260246000fd5b7f4e487b7100000000000000000000000000000000000000000000000000000000600052602260045260246000fd5b600060028204905060018216806200053d57607f821691505b602082108103620005535762000552620004f5565b5b50919050565b60008190508160005260206000209050919050565b60006020601f8301049050919050565b600082821b905092915050565b600060088302620005bd7fffffffffffffffffffffffffffffffffffffffffffffffffffffffffffffffff826200057e565b620005c986836200057e565b95508019841693508086168417925050509392505050565b6000819050919050565b6000819050919050565b600062000616620006106200060a84620005e1565b620005eb565b620005e1565b9050919050565b6000819050919050565b6200063283620005f5565b6200064a62000641826200061d565b8484546200058b565b825550505050565b600090565b6200066162000652565b6200066e81848462000627565b505050565b5b8181101562000696576200068a60008262000657565b60018101905062000674565b5050565b601f821115620006e557620006af8162000559565b620006ba846200056e565b81016020851015620006ca578190505b620006e2620006d9856200056e565b83018262000673565b50505b505050565b600082821c905092915050565b60006200070a60001984600802620006ea565b1980831691505092915050565b6000620007258383620006f7565b9150826002028217905092915050565b6200074082620004bb565b67ffffffffffffffff8111156200075c576200075b620004c6565b5b62000768825462000524565b620007758282856200069a565b600060209050601f831160018114620007ad576000841562000798578287015190505b620007a4858262000717565b86555062000814565b601f198416620007bd8662000559565b60005b82811015620007e757848901518255600182019150602085019450602081019050620007c0565b8683101562000807578489015162000803601f891682620006f7565b8355505b6001600288020188555050505b505050505050565b620008278162000444565b82525050565b60006020820190506200084460008301846200081c565b92915050565b61210f806200085a6000396000f3fe608060405234801561001057600080fd5b50600436106101425760003560e01c806370a08231116100b8578063a6e158f81161007c578063a6e158f814610341578063a9059cbb1461035d578063bec3fa171461038d578063bfb231d2146103a9578063dd62ed3e146103db578063f2fde38b1461040b57610142565b806370a08231146102af578063715018a6146102df57806379cc6790146102e95780638da5cb5b1461030557806395d89b411461032357610142565b806323b872dd1161010a57806323b872dd146101ef578063313ce5671461021f5780633823d1051461023d57806340c10f191461025b57806342966c68146102775780636d1b229d1461029357610142565b806306fdde03146101475780630934074f14610165578063095ea7b31461018357806312065fe0146101b357806318160ddd146101d1575b600080fd5b61014f610427565b60405161015c91906115d5565b60405180910390f35b61016d6104b9565b60405161017a91906115d5565b60405180910390f35b61019d60048036038101906101989190611690565b6104d9565b6040516101aa91906116eb565b60405180910390f35b6101bb6104fc565b6040516101c89190611715565b60405180910390f35b6101d961057d565b6040516101e69190611715565b60405180910390f35b61020960048036038101906102049190611730565b610587565b60405161021691906116eb565b60405180910390f35b6102276105b6565b604051610234919061179f565b60405180910390f35b6102456105bb565b6040516102529190611925565b60405180910390f35b61027560048036038101906102709190611690565b6106fd565b005b610291600480360381019061028c9190611947565b610713565b005b6102ad60048036038101906102a89190611947565b610727565b005b6102c960048036038101906102c49190611974565b61078a565b6040516102d69190611715565b60405180910390f35b6102e76107d2565b005b61030360048036038101906102fe9190611690565b6107e6565b005b61030d610806565b60405161031a91906119b0565b60405180910390f35b61032b610830565b60405161033891906115d5565b60405180910390f35b61035b60048036038101906103569190611947565b6108c2565b005b61037760048036038101906103729190611690565b610afe565b60405161038491906116eb565b60405180910390f35b6103a760048036038101906103a29190611690565b610b21565b005b6103c360048036038101906103be9190611947565b610b87565b6040516103d2939291906119cb565b60405180910390f35b6103f560048036038101906103f09190611a09565b610c49565b6040516104029190611715565b60405180910390f35b61042560048036038101906104209190611974565b610cd0565b005b60606003805461043690611a78565b80601f016020809104026020016040519081016040528092919081815260200182805461046290611a78565b80156104af5780601f10610484576101008083540402835291602001916104af565b820191906000526020600020905b81548152906001019060200180831161049257829003601f168201915b5050505050905090565b60606040518060600160405280602281526020016120b860229139905090565b6000806104e4610d56565b90506104f1818585610d5e565b600191505092915050565b60003073ffffffffffffffffffffffffffffffffffffffff166370a08231336040518263ffffffff1660e01b815260040161053791906119b0565b602060405180830381865afa158015610554573d6000803e3d6000fd5b505050506040513d601f19601f820116820180604052508101906105789190611abe565b905090565b6000600254905090565b600080610592610d56565b905061059f858285610d70565b6105aa858585610e04565b60019150509392505050565b600090565b6060600760003373ffffffffffffffffffffffffffffffffffffffff1673ffffffffffffffffffffffffffffffffffffffff168152602001908152602001600020805480602002602001604051908101604052809291908181526020016000905b828210156106f457838290600052602060002090600302016040518060600160405290816000820154815260200160018201805461065990611a78565b80601f016020809104026020016040519081016040528092919081815260200182805461068590611a78565b80156106d25780601f106106a7576101008083540402835291602001916106d2565b820191906000526020600020905b8154815290600101906020018083116106b557829003601f168201915b505050505081526020016002820154815250508152602001906001019061061c565b50505050905090565b610705610ef8565b61070f8282610f7f565b5050565b61072461071e610d56565b82611001565b50565b806107313361078a565b1015610772576040517f08c379a000000000000000000000000000000000000000000000000000000000815260040161076990611b5d565b60405180910390fd5b61077c33826104d9565b5061078733826107e6565b50565b60008060008373ffffffffffffffffffffffffffffffffffffffff1673ffffffffffffffffffffffffffffffffffffffff168152602001908152602001600020549050919050565b6107da610ef8565b6107e46000611083565b565b6107f8826107f2610d56565b83610d70565b6108028282611001565b5050565b6000600560009054906101000a900473ffffffffffffffffffffffffffffffffffffffff16905090565b60606004805461083f90611a78565b80601f016020809104026020016040519081016040528092919081815260200182805461086b90611a78565b80156108b85780601f1061088d576101008083540402835291602001916108b8565b820191906000526020600020905b81548152906001019060200180831161089b57829003601f168201915b5050505050905090565b6000811180156108d757506006805490508111155b610916576040517f08c379a000000000000000000000000000000000000000000000000000000000815260040161090d90611bc9565b60405180910390fd5b600060066001836109279190611c18565b8154811061093857610937611c4c565b5b90600052602060002090600302016040518060600160405290816000820154815260200160018201805461096b90611a78565b80601f016020809104026020016040519081016040528092919081815260200182805461099790611a78565b80156109e45780601f106109b9576101008083540402835291602001916109e4565b820191906000526020600020905b8154815290600101906020018083116109c757829003601f168201915b5050505050815260200160028201548152505090508060400151610a073361078a565b1015610a48576040517f08c379a0000000000000000000000000000000000000000000000000000000008152600401610a3f90611ced565b60405180910390fd5b610a563382604001516104d9565b50610a653382604001516107e6565b600760003373ffffffffffffffffffffffffffffffffffffffff1673ffffffffffffffffffffffffffffffffffffffff168152602001908152602001600020819080600181540180825580915050600190039060005260206000209060030201600090919091909150600082015181600001556020820151816001019081610aed9190611ee8565b506040820151816002015550505050565b600080610b09610d56565b9050610b16818585610e04565b600191505092915050565b80610b2b3361078a565b1015610b6c576040517f08c379a0000000000000000000000000000000000000000000000000000000008152600401610b639061202c565b60405180910390fd5b610b7633826104d9565b50610b82338383610587565b505050565b60068181548110610b9757600080fd5b9060005260206000209060030201600091509050806000015490806001018054610bc090611a78565b80601f0160208091040260200160405190810160405280929190818152602001828054610bec90611a78565b8015610c395780601f10610c0e57610100808354040283529160200191610c39565b820191906000526020600020905b815481529060010190602001808311610c1c57829003601f168201915b5050505050908060020154905083565b6000600160008473ffffffffffffffffffffffffffffffffffffffff1673ffffffffffffffffffffffffffffffffffffffff16815260200190815260200160002060008373ffffffffffffffffffffffffffffffffffffffff1673ffffffffffffffffffffffffffffffffffffffff16815260200190815260200160002054905092915050565b610cd8610ef8565b600073ffffffffffffffffffffffffffffffffffffffff168173ffffffffffffffffffffffffffffffffffffffff1603610d4a5760006040517f1e4fbdf7000000000000000000000000000000000000000000000000000000008152600401610d4191906119b0565b60405180910390fd5b610d5381611083565b50565b600033905090565b610d6b8383836001611149565b505050565b6000610d7c8484610c49565b90507fffffffffffffffffffffffffffffffffffffffffffffffffffffffffffffffff8114610dfe5781811015610dee578281836040517ffb8f41b2000000000000000000000000000000000000000000000000000000008152600401610de59392919061204c565b60405180910390fd5b610dfd84848484036000611149565b5b50505050565b600073ffffffffffffffffffffffffffffffffffffffff168373ffffffffffffffffffffffffffffffffffffffff1603610e765760006040517f96c6fd1e000000000000000000000000000000000000000000000000000000008152600401610e6d91906119b0565b60405180910390fd5b600073ffffffffffffffffffffffffffffffffffffffff168273ffffffffffffffffffffffffffffffffffffffff1603610ee85760006040517fec442f05000000000000000000000000000000000000000000000000000000008152600401610edf91906119b0565b60405180910390fd5b610ef3838383611320565b505050565b610f00610d56565b73ffffffffffffffffffffffffffffffffffffffff16610f1e610806565b73ffffffffffffffffffffffffffffffffffffffff1614610f7d57610f41610d56565b6040517f118cdaa7000000000000000000000000000000000000000000000000000000008152600401610f7491906119b0565b60405180910390fd5b565b600073ffffffffffffffffffffffffffffffffffffffff168273ffffffffffffffffffffffffffffffffffffffff1603610ff15760006040517fec442f05000000000000000000000000000000000000000000000000000000008152600401610fe891906119b0565b60405180910390fd5b610ffd60008383611320565b5050565b600073ffffffffffffffffffffffffffffffffffffffff168273ffffffffffffffffffffffffffffffffffffffff16036110735760006040517f96c6fd1e00000000000000000000000000000000000000000000000000000000815260040161106a91906119b0565b60405180910390fd5b61107f82600083611320565b5050565b6000600560009054906101000a900473ffffffffffffffffffffffffffffffffffffffff16905081600560006101000a81548173ffffffffffffffffffffffffffffffffffffffff021916908373ffffffffffffffffffffffffffffffffffffffff1602179055508173ffffffffffffffffffffffffffffffffffffffff168173ffffffffffffffffffffffffffffffffffffffff167f8be0079c531659141344cd1fd0a4f28419497f9722a3daafe3b4186f6b6457e060405160405180910390a35050565b600073ffffffffffffffffffffffffffffffffffffffff168473ffffffffffffffffffffffffffffffffffffffff16036111bb5760006040517fe602df050000000000000000000000000000000000000000000000000000000081526004016111b291906119b0565b60405180910390fd5b600073ffffffffffffffffffffffffffffffffffffffff168373ffffffffffffffffffffffffffffffffffffffff160361122d5760006040517f94280d6200000000000000000000000000000000000000000000000000000000815260040161122491906119b0565b60405180910390fd5b81600160008673ffffffffffffffffffffffffffffffffffffffff1673ffffffffffffffffffffffffffffffffffffffff16815260200190815260200160002060008573ffffffffffffffffffffffffffffffffffffffff1673ffffffffffffffffffffffffffffffffffffffff16815260200190815260200160002081905550801561131a578273ffffffffffffffffffffffffffffffffffffffff168473ffffffffffffffffffffffffffffffffffffffff167f8c5be1e5ebec7d5bd14f71427d1e84f3dd0314c0f7b2291e5b200ac8c7c3b925846040516113119190611715565b60405180910390a35b50505050565b600073ffffffffffffffffffffffffffffffffffffffff168373ffffffffffffffffffffffffffffffffffffffff16036113725780600260008282546113669190612083565b92505081905550611445565b60008060008573ffffffffffffffffffffffffffffffffffffffff1673ffffffffffffffffffffffffffffffffffffffff168152602001908152602001600020549050818110156113fe578381836040517fe450d38c0000000000000000000000000000000000000000000000000000000081526004016113f59392919061204c565b60405180910390fd5b8181036000808673ffffffffffffffffffffffffffffffffffffffff1673ffffffffffffffffffffffffffffffffffffffff16815260200190815260200160002081905550505b600073ffffffffffffffffffffffffffffffffffffffff168273ffffffffffffffffffffffffffffffffffffffff160361148e57806002600082825403925050819055506114db565b806000808473ffffffffffffffffffffffffffffffffffffffff1673ffffffffffffffffffffffffffffffffffffffff168152602001908152602001600020600082825401925050819055505b8173ffffffffffffffffffffffffffffffffffffffff168373ffffffffffffffffffffffffffffffffffffffff167fddf252ad1be2c89b69c2b068fc378daa952ba7f163c4a11628f55a4df523b3ef836040516115389190611715565b60405180910390a3505050565b600081519050919050565b600082825260208201905092915050565b60005b8381101561157f578082015181840152602081019050611564565b60008484015250505050565b6000601f19601f8301169050919050565b60006115a782611545565b6115b18185611550565b93506115c1818560208601611561565b6115ca8161158b565b840191505092915050565b600060208201905081810360008301526115ef818461159c565b905092915050565b600080fd5b600073ffffffffffffffffffffffffffffffffffffffff82169050919050565b6000611627826115fc565b9050919050565b6116378161161c565b811461164257600080fd5b50565b6000813590506116548161162e565b92915050565b6000819050919050565b61166d8161165a565b811461167857600080fd5b50565b60008135905061168a81611664565b92915050565b600080604083850312156116a7576116a66115f7565b5b60006116b585828601611645565b92505060206116c68582860161167b565b9150509250929050565b60008115159050919050565b6116e5816116d0565b82525050565b600060208201905061170060008301846116dc565b92915050565b61170f8161165a565b82525050565b600060208201905061172a6000830184611706565b92915050565b600080600060608486031215611749576117486115f7565b5b600061175786828701611645565b935050602061176886828701611645565b92505060406117798682870161167b565b9150509250925092565b600060ff82169050919050565b61179981611783565b82525050565b60006020820190506117b46000830184611790565b92915050565b600081519050919050565b600082825260208201905092915050565b6000819050602082019050919050565b6117ef8161165a565b82525050565b600082825260208201905092915050565b600061181182611545565b61181b81856117f5565b935061182b818560208601611561565b6118348161158b565b840191505092915050565b600060608301600083015161185760008601826117e6565b506020830151848203602086015261186f8282611806565b915050604083015161188460408601826117e6565b508091505092915050565b600061189b838361183f565b905092915050565b6000602082019050919050565b60006118bb826117ba565b6118c581856117c5565b9350836020820285016118d7856117d6565b8060005b8581101561191357848403895281516118f4858261188f565b94506118ff836118a3565b925060208a019950506001810190506118db565b50829750879550505050505092915050565b6000602082019050818103600083015261193f81846118b0565b905092915050565b60006020828403121561195d5761195c6115f7565b5b600061196b8482850161167b565b91505092915050565b60006020828403121561198a576119896115f7565b5b600061199884828501611645565b91505092915050565b6119aa8161161c565b82525050565b60006020820190506119c560008301846119a1565b92915050565b60006060820190506119e06000830186611706565b81810360208301526119f2818561159c565b9050611a016040830184611706565b949350505050565b60008060408385031215611a2057611a1f6115f7565b5b6000611a2e85828601611645565b9250506020611a3f85828601611645565b9150509250929050565b7f4e487b7100000000000000000000000000000000000000000000000000000000600052602260045260246000fd5b60006002820490506001821680611a9057607f821691505b602082108103611aa357611aa2611a49565b5b50919050565b600081519050611ab881611664565b92915050565b600060208284031215611ad457611ad36115f7565b5b6000611ae284828501611aa9565b91505092915050565b7f596f7520646f206e6f74206861766520656e6f75676820446567656e20546f6b60008201527f656e7320746f206275726e000000000000000000000000000000000000000000602082015250565b6000611b47602b83611550565b9150611b5282611aeb565b604082019050919050565b60006020820190508181036000830152611b7681611b3a565b9050919050565b7f4974656d20646f6573206e6f7420657869737400000000000000000000000000600082015250565b6000611bb3601383611550565b9150611bbe82611b7d565b602082019050919050565b60006020820190508181036000830152611be281611ba6565b9050919050565b7f4e487b7100000000000000000000000000000000000000000000000000000000600052601160045260246000fd5b6000611c238261165a565b9150611c2e8361165a565b9250828203905081811115611c4657611c45611be9565b5b92915050565b7f4e487b7100000000000000000000000000000000000000000000000000000000600052603260045260246000fd5b7f596f7520646f206e6f74206861766520656e6f75676820446567656e20546f6b60008201527f656e7320746f2072656465656d2074686973206974656d000000000000000000602082015250565b6000611cd7603783611550565b9150611ce282611c7b565b604082019050919050565b60006020820190508181036000830152611d0681611cca565b9050919050565b7f4e487b7100000000000000000000000000000000000000000000000000000000600052604160045260246000fd5b60008190508160005260206000209050919050565b60006020601f8301049050919050565b600082821b905092915050565b600060088302611d9e7fffffffffffffffffffffffffffffffffffffffffffffffffffffffffffffffff82611d61565b611da88683611d61565b95508019841693508086168417925050509392505050565b6000819050919050565b6000611de5611de0611ddb8461165a565b611dc0565b61165a565b9050919050565b6000819050919050565b611dff83611dca565b611e13611e0b82611dec565b848454611d6e565b825550505050565b600090565b611e28611e1b565b611e33818484611df6565b505050565b5b81811015611e5757611e4c600082611e20565b600181019050611e39565b5050565b601f821115611e9c57611e6d81611d3c565b611e7684611d51565b81016020851015611e85578190505b611e99611e9185611d51565b830182611e38565b50505b505050565b600082821c905092915050565b6000611ebf60001984600802611ea1565b1980831691505092915050565b6000611ed88383611eae565b9150826002028217905092915050565b611ef182611545565b67ffffffffffffffff811115611f0a57611f09611d0d565b5b611f148254611a78565b611f1f828285611e5b565b600060209050601f831160018114611f525760008415611f40578287015190505b611f4a8582611ecc565b865550611fb2565b601f198416611f6086611d3c565b60005b82811015611f8857848901518255600182019150602085019450602081019050611f63565b86831015611fa55784890151611fa1601f891682611eae565b8355505b6001600288020188555050505b505050505050565b7f596f7520646f206e6f74206861766520656e6f75676820446567656e20546f6b60008201527f656e730000000000000000000000000000000000000000000000000000000000602082015250565b6000612016602383611550565b915061202182611fba565b604082019050919050565b6000602082019050818103600083015261204581612009565b9050919050565b600060608201905061206160008301866119a1565b61206e6020830185611706565b61207b6040830184611706565b949350505050565b600061208e8261165a565b91506120998361165a565b92508282019050808211156120b1576120b0611be9565b5b9291505056fe49443a312042616c6c70656e2c2049443a322053686972742c2049443a33204d7567a2646970667358221220a6fd4b2903e67a689cea495aa53c4515c4911665a8faecf2165a6731e325662064736f6c63430008180033",
  "linkReferences": {},
  "deployedLinkReferences": {}
}